{
  "transactions": [
    {
      "hash": "0xace3166ff9cc7117069921ab125f1ee2220cb03414cd7d314e1d39c7ece33452",
      "transactionType": "CALL",
      "contractName": null,
      "contractAddress": "0xd1fc8db3f437461dde6ce60cb2f6610153314879",
      "function": "setSolvModuleContracts(uint32[],address[])",
      "arguments": [
        "[8453, 42161]",
        "[0x26898BeCcAE66D8ae108C1bE2adE5328D139ec16, 0x26898BeCcAE66D8ae108C1bE2adE5328D139ec16]"
      ],
      "transaction": {
        "from": "0x90f05c1e52fafb4577a4f5f869b804318d56a1ee",
        "to": "0xd1fc8db3f437461dde6ce60cb2f6610153314879",
        "gas": "0xb2fd",
        "value": "0x0",
        "input": "0x4cc57a20000000000000000000000000000000000000000000000000000000000000004000000000000000000000000000000000000000000000000000000000000000a000000000000000000000000000000000000000000000000000000000000000020000000000000000000000000000000000000000000000000000000000002105000000000000000000000000000000000000000000000000000000000000a4b1000000000000000000000000000000000000000000000000000000000000000200000000000000000000000026898beccae66d8ae108c1be2ade5328d139ec1600000000000000000000000026898beccae66d8ae108c1be2ade5328d139ec16",
        "nonce": "0x19",
        "chainId": "0x2105"
      },
      "additionalContracts": [],
      "isFixedGasLimit": false
    }
  ],
  "receipts": [
    {
      "status": "0x1",
      "cumulativeGasUsed": "0x1caf14c",
      "logs": [],
      "logsBloom": "0x00000000000000000000000000000000000000000000000000000000000000000000000000000000000000000000000000000000000000000000000000000000000000000000000000000000000000000000000000000000000000000000000000000000000000000000000000000000000000000000000000000000000000000000000000000000000000000000000000000000000000000000000000000000000000000000000000000000000000000000000000000000000000000000000000000000000000000000000000000000000000000000000000000000000000000000000000000000000000000000000000000000000000000000000000000000",
      "type": "0x2",
      "transactionHash": "0xace3166ff9cc7117069921ab125f1ee2220cb03414cd7d314e1d39c7ece33452",
      "transactionIndex": "0x6b",
      "blockHash": "0x858207212c2ecb3b585dc82dbe6130a2d83dfa3d20e728e5c7eba6b6c80d59b7",
      "blockNumber": "0x1571688",
      "gasUsed": "0x7a63",
      "effectiveGasPrice": "0x3a7bd1",
      "from": "0x90f05c1e52fafb4577a4f5f869b804318d56a1ee",
      "to": "0xd1fc8db3f437461dde6ce60cb2f6610153314879",
      "contractAddress": null,
      "l1BaseFeeScalar": "0x8dd",
      "l1BlobBaseFee": "0x13813794d",
      "l1BlobBaseFeeScalar": "0x101c12",
      "l1Fee": "0x14478ab4e5",
      "l1FeeScalar": "0.002269",
      "l1GasPrice": "0x2960bc2cc",
      "l1GasUsed": "0xd80"
    }
  ],
  "libraries": [],
  "pending": [],
  "returns": {},
  "timestamp": 1731758585,
  "chain": 8453,
  "commit": "a88cecd"
}