{
  "transactions": [
    {
      "hash": "0x70bdfef046077899695ea5cd9b781c99dacd448945bfa3fd7b793d136b5895ff",
      "transactionType": "CALL",
      "contractName": null,
      "contractAddress": "0x381f89793dbaef959dd4e75dba0cb5a9bacbded7",
      "function": "mint(address,uint256)",
      "arguments": [
        "0xDA861C9DccFf6d1fEf7Cae71B5b538AF25063404",
        "1000000000000000000"
      ],
      "transaction": {
        "from": "0x90f05c1e52fafb4577a4f5f869b804318d56a1ee",
        "to": "0x381f89793dbaef959dd4e75dba0cb5a9bacbded7",
        "value": "0x0",
        "input": "0x40c10f19000000000000000000000000da861c9dccff6d1fef7cae71b5b538af250634040000000000000000000000000000000000000000000000000de0b6b3a7640000",
        "nonce": "0x44",
        "chainId": "0x2105"
      },
      "additionalContracts": [],
      "isFixedGasLimit": false
    },
    {
      "hash": "0x5bd904979ff3bf2b17d79bc46289f4f6b600fd004b63c16236f8c93d83b059e0",
      "transactionType": "CALL",
      "contractName": null,
      "contractAddress": "0x73cdb31d7c2b8ed20b5356201819020bd3888631",
      "function": "setSolvModuleContracts(uint32[],address[])",
      "arguments": [
        "[8453, 42161]",
        "[0xB9964233A0F328c52Ed063B8c70F089EdCaa9924, 0xB9964233A0F328c52Ed063B8c70F089EdCaa9924]"
      ],
      "transaction": {
        "from": "0x90f05c1e52fafb4577a4f5f869b804318d56a1ee",
        "to": "0x73cdb31d7c2b8ed20b5356201819020bd3888631",
        "value": "0x0",
        "input": "0x4cc57a20000000000000000000000000000000000000000000000000000000000000004000000000000000000000000000000000000000000000000000000000000000a000000000000000000000000000000000000000000000000000000000000000020000000000000000000000000000000000000000000000000000000000002105000000000000000000000000000000000000000000000000000000000000a4b10000000000000000000000000000000000000000000000000000000000000002000000000000000000000000b9964233a0f328c52ed063b8c70f089edcaa9924000000000000000000000000b9964233a0f328c52ed063b8c70f089edcaa9924",
        "nonce": "0x45",
        "chainId": "0x2105"
      },
      "additionalContracts": [],
      "isFixedGasLimit": false
    }
  ],
  "receipts": [
    {
      "status": "0x1",
      "cumulativeGasUsed": "0x132b15c",
      "logs": [
        {
          "address": "0x381f89793dbaef959dd4e75dba0cb5a9bacbded7",
          "topics": [
            "0xddf252ad1be2c89b69c2b068fc378daa952ba7f163c4a11628f55a4df523b3ef",
            "0x0000000000000000000000000000000000000000000000000000000000000000",
            "0x000000000000000000000000da861c9dccff6d1fef7cae71b5b538af25063404"
          ],
          "data": "0x0000000000000000000000000000000000000000000000000de0b6b3a7640000",
          "blockHash": "0x2b06c7917ecb6c757502821c1f64165e6494b937f845bdecfdecec1031fc196b",
          "blockNumber": "0x1573aba",
          "blockTimestamp": "0x6738d257",
          "transactionHash": "0x70bdfef046077899695ea5cd9b781c99dacd448945bfa3fd7b793d136b5895ff",
          "transactionIndex": "0x7e",
          "logIndex": "0x161",
          "removed": false
        }
      ],
      "logsBloom": "0x04000000000000000000000000000000000000000000000000000000000000000000000000000000000000000000000000000000000000000000000000000000000000000000000000000008000400000000000000000000000000000000000000000000020000000000000000000800000000000000000000000010000000000000000000000000000000000000000000000000000000000000000000000000000000000000000000000000000000000000000000000000000000002400000000000002000000000000000000000000000000000001000000000000000020000000000000000000000000000000000000000002000000000000000000000000",
      "type": "0x2",
      "transactionHash": "0x70bdfef046077899695ea5cd9b781c99dacd448945bfa3fd7b793d136b5895ff",
      "transactionIndex": "0x7e",
      "blockHash": "0x2b06c7917ecb6c757502821c1f64165e6494b937f845bdecfdecec1031fc196b",
      "blockNumber": "0x1573aba",
      "gasUsed": "0x85a8",
      "effectiveGasPrice": "0xdf24d4",
      "from": "0x90f05c1e52fafb4577a4f5f869b804318d56a1ee",
      "to": "0x381f89793dbaef959dd4e75dba0cb5a9bacbded7",
      "contractAddress": null,
      "l1BaseFeeScalar": "0x8dd",
      "l1BlobBaseFee": "0x19ac964ba",
      "l1BlobBaseFeeScalar": "0x101c12",
      "l1Fee": "0x11178b8888",
      "l1FeeScalar": "0.002269",
      "l1GasPrice": "0x324d7a7de",
      "l1GasUsed": "0x95c"
    },
    {
      "status": "0x1",
      "cumulativeGasUsed": "0x133ba78",
      "logs": [],
      "logsBloom": "0x00000000000000000000000000000000000000000000000000000000000000000000000000000000000000000000000000000000000000000000000000000000000000000000000000000000000000000000000000000000000000000000000000000000000000000000000000000000000000000000000000000000000000000000000000000000000000000000000000000000000000000000000000000000000000000000000000000000000000000000000000000000000000000000000000000000000000000000000000000000000000000000000000000000000000000000000000000000000000000000000000000000000000000000000000000000",
      "type": "0x2",
      "transactionHash": "0x5bd904979ff3bf2b17d79bc46289f4f6b600fd004b63c16236f8c93d83b059e0",
      "transactionIndex": "0x6c",
      "blockHash": "0x86358e5941c697643508e39d365220e4214e50b49afdf14bf57dd35236bc5a93",
      "blockNumber": "0x1573abf",
      "gasUsed": "0x7a63",
      "effectiveGasPrice": "0xde9ca2",
      "from": "0x90f05c1e52fafb4577a4f5f869b804318d56a1ee",
      "to": "0x73cdb31d7c2b8ed20b5356201819020bd3888631",
      "contractAddress": null,
      "l1BaseFeeScalar": "0x8dd",
      "l1BlobBaseFee": "0x19ac964ba",
      "l1BlobBaseFeeScalar": "0x101c12",
      "l1Fee": "0x18c485d088",
      "l1FeeScalar": "0.002269",
      "l1GasPrice": "0x324d7a7de",
      "l1GasUsed": "0xd90"
    }
  ],
  "libraries": [],
  "pending": [],
  "returns": {},
  "timestamp": 1731777127,
  "chain": 8453,
  "commit": "c0c2124"
}